{
  "_format": "hh-sol-artifact-1",
  "contractName": "Marketplace",
  "sourceName": "contracts/Marketplace.sol",
  "abi": [
    {
      "anonymous": false,
      "inputs": [
        {
          "indexed": false,
          "internalType": "uint256",
          "name": "id",
          "type": "uint256"
        },
        {
          "indexed": false,
          "internalType": "string",
          "name": "name",
          "type": "string"
        },
        {
          "indexed": false,
          "internalType": "uint256",
          "name": "price",
          "type": "uint256"
        },
        {
          "indexed": false,
          "internalType": "address",
          "name": "seller",
          "type": "address"
        }
      ],
      "name": "ItemAdded",
      "type": "event"
    },
    {
      "anonymous": false,
      "inputs": [
        {
          "indexed": false,
          "internalType": "uint256",
          "name": "id",
          "type": "uint256"
        },
        {
          "indexed": false,
          "internalType": "address",
          "name": "buyer",
          "type": "address"
        },
        {
          "indexed": false,
          "internalType": "uint256",
          "name": "price",
          "type": "uint256"
        }
      ],
      "name": "ItemPurchased",
      "type": "event"
    },
    {
      "inputs": [
        {
          "internalType": "string",
          "name": "name",
          "type": "string"
        },
        {
          "internalType": "uint256",
          "name": "price",
          "type": "uint256"
        }
      ],
      "name": "addItem",
      "outputs": [],
      "stateMutability": "nonpayable",
      "type": "function"
    },
    {
      "inputs": [],
      "name": "getItems",
      "outputs": [
        {
          "components": [
            {
              "internalType": "uint256",
              "name": "id",
              "type": "uint256"
            },
            {
              "internalType": "string",
              "name": "name",
              "type": "string"
            },
            {
              "internalType": "uint256",
              "name": "price",
              "type": "uint256"
            },
            {
              "internalType": "address",
              "name": "seller",
              "type": "address"
            },
            {
              "internalType": "bool",
              "name": "sold",
              "type": "bool"
            }
          ],
          "internalType": "struct Marketplace.Item[]",
          "name": "",
          "type": "tuple[]"
        }
      ],
      "stateMutability": "view",
      "type": "function"
    },
    {
      "inputs": [],
      "name": "itemCount",
      "outputs": [
        {
          "internalType": "uint256",
          "name": "",
          "type": "uint256"
        }
      ],
      "stateMutability": "view",
      "type": "function"
    },
    {
      "inputs": [
        {
          "internalType": "uint256",
          "name": "",
          "type": "uint256"
        }
      ],
      "name": "items",
      "outputs": [
        {
          "internalType": "uint256",
          "name": "id",
          "type": "uint256"
        },
        {
          "internalType": "string",
          "name": "name",
          "type": "string"
        },
        {
          "internalType": "uint256",
          "name": "price",
          "type": "uint256"
        },
        {
          "internalType": "address",
          "name": "seller",
          "type": "address"
        },
        {
          "internalType": "bool",
          "name": "sold",
          "type": "bool"
        }
      ],
      "stateMutability": "view",
      "type": "function"
    },
    {
      "inputs": [
        {
          "internalType": "uint256",
          "name": "id",
          "type": "uint256"
        }
      ],
      "name": "purchaseItem",
      "outputs": [],
      "stateMutability": "payable",
      "type": "function"
    },
    {
      "inputs": [
        {
          "internalType": "address",
          "name": "",
          "type": "address"
        }
      ],
      "name": "sellerBalances",
      "outputs": [
        {
          "internalType": "uint256",
          "name": "",
          "type": "uint256"
        }
      ],
      "stateMutability": "view",
      "type": "function"
    },
    {
      "inputs": [],
      "name": "withdrawBalance",
      "outputs": [],
      "stateMutability": "nonpayable",
      "type": "function"
    }
  ],
  "bytecode": "0x60806040526000805534801561001457600080fd5b50611693806100246000396000f3fe6080604052600436106100705760003560e01c806362d6bbdf1161004e57806362d6bbdf146100f45780636bfb0d011461011d578063bfb231d214610148578063d38ea5bf1461018957610070565b8063410d59cc146100755780635fd8c710146100a0578063607eb4e4146100b7575b600080fd5b34801561008157600080fd5b5061008a6101a5565b6040516100979190610c01565b60405180910390f35b3480156100ac57600080fd5b506100b561038a565b005b3480156100c357600080fd5b506100de60048036038101906100d99190610c63565b6104a0565b6040516100eb9190610c9f565b60405180910390f35b34801561010057600080fd5b5061011b60048036038101906101169190610e1b565b6104b8565b005b34801561012957600080fd5b506101326106ae565b60405161013f9190610c9f565b60405180910390f35b34801561015457600080fd5b5061016f600480360381019061016a9190610e77565b6106b4565b604051610180959493929190610f0c565b60405180910390f35b6101a3600480360381019061019e9190610e77565b61079f565b005b60606000805467ffffffffffffffff8111156101c4576101c3610cc4565b5b6040519080825280602002602001820160405280156101fd57816020015b6101ea61097d565b8152602001906001900390816101e25790505b5090506000600190505b600054811161038257600160008281526020019081526020016000206040518060a00160405290816000820154815260200160018201805461024890610f95565b80601f016020809104026020016040519081016040528092919081815260200182805461027490610f95565b80156102c15780601f10610296576101008083540402835291602001916102c1565b820191906000526020600020905b8154815290600101906020018083116102a457829003601f168201915b50505050508152602001600282015481526020016003820160009054906101000a900473ffffffffffffffffffffffffffffffffffffffff1673ffffffffffffffffffffffffffffffffffffffff1673ffffffffffffffffffffffffffffffffffffffff1681526020016003820160149054906101000a900460ff161515151581525050826001836103539190610ff5565b8151811061036457610363611029565b5b6020026020010181905250808061037a90611058565b915050610207565b508091505090565b6000600260003373ffffffffffffffffffffffffffffffffffffffff1673ffffffffffffffffffffffffffffffffffffffff16815260200190815260200160002054905060008111610411576040517f08c379a0000000000000000000000000000000000000000000000000000000008152600401610408906110ec565b60405180910390fd5b6000600260003373ffffffffffffffffffffffffffffffffffffffff1673ffffffffffffffffffffffffffffffffffffffff168152602001908152602001600020819055503373ffffffffffffffffffffffffffffffffffffffff166108fc829081150290604051600060405180830381858888f1935050505015801561049c573d6000803e3d6000fd5b5050565b60026020528060005260406000206000915090505481565b600073ffffffffffffffffffffffffffffffffffffffff163373ffffffffffffffffffffffffffffffffffffffff1603610527576040517f08c379a000000000000000000000000000000000000000000000000000000000815260040161051e90611158565b60405180910390fd5b6000811161056a576040517f08c379a0000000000000000000000000000000000000000000000000000000008152600401610561906111c4565b60405180910390fd5b60008081548092919061057c90611058565b91905055506040518060a0016040528060005481526020018381526020018281526020013373ffffffffffffffffffffffffffffffffffffffff1681526020016000151581525060016000805481526020019081526020016000206000820151816000015560208201518160010190816105f69190611390565b506040820151816002015560608201518160030160006101000a81548173ffffffffffffffffffffffffffffffffffffffff021916908373ffffffffffffffffffffffffffffffffffffffff16021790555060808201518160030160146101000a81548160ff0219169083151502179055509050507f4cb34837c7f53a61f23e94bec431249774053a2ab0b596d1382fb3dde16f65cd6000548383336040516106a29493929190611462565b60405180910390a15050565b60005481565b60016020528060005260406000206000915090508060000154908060010180546106dd90610f95565b80601f016020809104026020016040519081016040528092919081815260200182805461070990610f95565b80156107565780601f1061072b57610100808354040283529160200191610756565b820191906000526020600020905b81548152906001019060200180831161073957829003601f168201915b5050505050908060020154908060030160009054906101000a900473ffffffffffffffffffffffffffffffffffffffff16908060030160149054906101000a900460ff16905085565b6000600160008381526020019081526020016000209050600081600001541180156107d05750600054816000015411155b61080f576040517f08c379a0000000000000000000000000000000000000000000000000000000008152600401610806906114fa565b60405180910390fd5b80600201543414610855576040517f08c379a000000000000000000000000000000000000000000000000000000000815260040161084c90611566565b60405180910390fd5b8060030160149054906101000a900460ff16156108a7576040517f08c379a000000000000000000000000000000000000000000000000000000000815260040161089e906115d2565b60405180910390fd5b60018160030160146101000a81548160ff02191690831515021790555034600260008360030160009054906101000a900473ffffffffffffffffffffffffffffffffffffffff1673ffffffffffffffffffffffffffffffffffffffff1673ffffffffffffffffffffffffffffffffffffffff168152602001908152602001600020600082825461093791906115f2565b925050819055507f78a0660bbda86d17037943644187f6f1f73f2f20a3240bf4cf4a56c2a96bcf8482333460405161097193929190611626565b60405180910390a15050565b6040518060a00160405280600081526020016060815260200160008152602001600073ffffffffffffffffffffffffffffffffffffffff1681526020016000151581525090565b600081519050919050565b600082825260208201905092915050565b6000819050602082019050919050565b6000819050919050565b610a03816109f0565b82525050565b600081519050919050565b600082825260208201905092915050565b60005b83811015610a43578082015181840152602081019050610a28565b60008484015250505050565b6000601f19601f8301169050919050565b6000610a6b82610a09565b610a758185610a14565b9350610a85818560208601610a25565b610a8e81610a4f565b840191505092915050565b600073ffffffffffffffffffffffffffffffffffffffff82169050919050565b6000610ac482610a99565b9050919050565b610ad481610ab9565b82525050565b60008115159050919050565b610aef81610ada565b82525050565b600060a083016000830151610b0d60008601826109fa565b5060208301518482036020860152610b258282610a60565b9150506040830151610b3a60408601826109fa565b506060830151610b4d6060860182610acb565b506080830151610b606080860182610ae6565b508091505092915050565b6000610b778383610af5565b905092915050565b6000602082019050919050565b6000610b97826109c4565b610ba181856109cf565b935083602082028501610bb3856109e0565b8060005b85811015610bef5784840389528151610bd08582610b6b565b9450610bdb83610b7f565b925060208a01995050600181019050610bb7565b50829750879550505050505092915050565b60006020820190508181036000830152610c1b8184610b8c565b905092915050565b6000604051905090565b600080fd5b600080fd5b610c4081610ab9565b8114610c4b57600080fd5b50565b600081359050610c5d81610c37565b92915050565b600060208284031215610c7957610c78610c2d565b5b6000610c8784828501610c4e565b91505092915050565b610c99816109f0565b82525050565b6000602082019050610cb46000830184610c90565b92915050565b600080fd5b600080fd5b7f4e487b7100000000000000000000000000000000000000000000000000000000600052604160045260246000fd5b610cfc82610a4f565b810181811067ffffffffffffffff82111715610d1b57610d1a610cc4565b5b80604052505050565b6000610d2e610c23565b9050610d3a8282610cf3565b919050565b600067ffffffffffffffff821115610d5a57610d59610cc4565b5b610d6382610a4f565b9050602081019050919050565b82818337600083830152505050565b6000610d92610d8d84610d3f565b610d24565b905082815260208101848484011115610dae57610dad610cbf565b5b610db9848285610d70565b509392505050565b600082601f830112610dd657610dd5610cba565b5b8135610de6848260208601610d7f565b91505092915050565b610df8816109f0565b8114610e0357600080fd5b50565b600081359050610e1581610def565b92915050565b60008060408385031215610e3257610e31610c2d565b5b600083013567ffffffffffffffff811115610e5057610e4f610c32565b5b610e5c85828601610dc1565b9250506020610e6d85828601610e06565b9150509250929050565b600060208284031215610e8d57610e8c610c2d565b5b6000610e9b84828501610e06565b91505092915050565b600082825260208201905092915050565b6000610ec082610a09565b610eca8185610ea4565b9350610eda818560208601610a25565b610ee381610a4f565b840191505092915050565b610ef781610ab9565b82525050565b610f0681610ada565b82525050565b600060a082019050610f216000830188610c90565b8181036020830152610f338187610eb5565b9050610f426040830186610c90565b610f4f6060830185610eee565b610f5c6080830184610efd565b9695505050505050565b7f4e487b7100000000000000000000000000000000000000000000000000000000600052602260045260246000fd5b60006002820490506001821680610fad57607f821691505b602082108103610fc057610fbf610f66565b5b50919050565b7f4e487b7100000000000000000000000000000000000000000000000000000000600052601160045260246000fd5b6000611000826109f0565b915061100b836109f0565b925082820390508181111561102357611022610fc6565b5b92915050565b7f4e487b7100000000000000000000000000000000000000000000000000000000600052603260045260246000fd5b6000611063826109f0565b91507fffffffffffffffffffffffffffffffffffffffffffffffffffffffffffffffff820361109557611094610fc6565b5b600182019050919050565b7f4e6f2066756e647320746f207769746864726177000000000000000000000000600082015250565b60006110d6601483610ea4565b91506110e1826110a0565b602082019050919050565b60006020820190508181036000830152611105816110c9565b9050919050565b7f496e76616c69642073656e646572206164647265737300000000000000000000600082015250565b6000611142601683610ea4565b915061114d8261110c565b602082019050919050565b6000602082019050818103600083015261117181611135565b9050919050565b7f5072696365206d7573742062652067726561746572207468616e207a65726f00600082015250565b60006111ae601f83610ea4565b91506111b982611178565b602082019050919050565b600060208201905081810360008301526111dd816111a1565b9050919050565b60008190508160005260206000209050919050565b60006020601f8301049050919050565b600082821b905092915050565b6000600883026112467fffffffffffffffffffffffffffffffffffffffffffffffffffffffffffffffff82611209565b6112508683611209565b95508019841693508086168417925050509392505050565b6000819050919050565b600061128d611288611283846109f0565b611268565b6109f0565b9050919050565b6000819050919050565b6112a783611272565b6112bb6112b382611294565b848454611216565b825550505050565b600090565b6112d06112c3565b6112db81848461129e565b505050565b5b818110156112ff576112f46000826112c8565b6001810190506112e1565b5050565b601f82111561134457611315816111e4565b61131e846111f9565b8101602085101561132d578190505b611341611339856111f9565b8301826112e0565b50505b505050565b600082821c905092915050565b600061136760001984600802611349565b1980831691505092915050565b60006113808383611356565b9150826002028217905092915050565b61139982610a09565b67ffffffffffffffff8111156113b2576113b1610cc4565b5b6113bc8254610f95565b6113c7828285611303565b600060209050601f8311600181146113fa57600084156113e8578287015190505b6113f28582611374565b86555061145a565b601f198416611408866111e4565b60005b828110156114305784890151825560018201915060208501945060208101905061140b565b8683101561144d5784890151611449601f891682611356565b8355505b6001600288020188555050505b505050505050565b60006080820190506114776000830187610c90565b81810360208301526114898186610eb5565b90506114986040830185610c90565b6114a56060830184610eee565b95945050505050565b7f4974656d20646f6573206e6f7420657869737400000000000000000000000000600082015250565b60006114e4601383610ea4565b91506114ef826114ae565b602082019050919050565b60006020820190508181036000830152611513816114d7565b9050919050565b7f496e636f72726563742070726963650000000000000000000000000000000000600082015250565b6000611550600f83610ea4565b915061155b8261151a565b602082019050919050565b6000602082019050818103600083015261157f81611543565b9050919050565b7f4974656d20616c726561647920736f6c64000000000000000000000000000000600082015250565b60006115bc601183610ea4565b91506115c782611586565b602082019050919050565b600060208201905081810360008301526115eb816115af565b9050919050565b60006115fd826109f0565b9150611608836109f0565b92508282019050808211156116205761161f610fc6565b5b92915050565b600060608201905061163b6000830186610c90565b6116486020830185610eee565b6116556040830184610c90565b94935050505056fea264697066735822122055314a23090aa43e26592bd45021f81020d0f9fcb5136ffa9249b7b0e8aa8fa564736f6c63430008140033",
  "linkReferences": {},
  "deployedLinkReferences": {}
}